:020000001628C0
:0E000600831203132C088A002B0882000800C6
:1000140003208A110A128000840AAB0A0319AC0A6D
:08002400F003031D0A28080087
:10002C003F3083120313A0000630A1005B30A20006
:10003C004F30A3006630A4006D30A5007D30A600C3
:10004C000730A7007F30A8006F30A900AA018316E3
:10005C008601831220088600831605148514073048
:10006C0083129F000518542880302A06F000803037
:10007C00093A700203185428AA0A2A08203E840060
:10008C00000886000230FB008630FC009930FD0031
:10009C00FD0B4E28FC0B4E28FB0B4E2885187728A1
:1000AC002A080A3A031D5C280930AA00AA038030EA
:1000BC002A06F0008030003A700203186628AA0164
:1000CC002A08203E8400000886000230FB0086309F
:1000DC00FC009930FD00FD0B7128FC0B7128FB0B0B
:0600EC0071283828782875
:02400E00582137
:00000001FF
